:10000000FCFF0320A92900008D2900008D29000094
:100010008D2900008D2900008D2900008D29000008
:100020008D2900008D2900008D2900008D290000F8
:100030008D2900008D2900008D2900008D290000E8
:100040008D2900008D2900008D2900008D290000D8
:100050008D2900008D2900008D2900008D290000C8
:100060008D2900008D2900008D2900008D290000B8
:100070008D2900008D2900008D2900008D290000A8
:100080008D2900008D2900008D2900008D29000098
:100090008D2900008D2900008D2900008D29000088
:1000A0008D2900008D2900008D2900008D29000078
:1000B0008D2900008D2900008D2900008D29000068
:1000C0008D2900008D2900008D2900008D29000058
:1000D0008D2900008D2900008D2900008D29000048
:1000E0008D2900008D2900008D2900008D29000038
:1000F0008D2900008D2900008D2900008D29000028
:100100008D2900008D2900008D2900008D29000017
:100110008D2900008D2900008D2900008D29000007
:100120008D2900008D2900008D2900008D290000F7
:100130008D2900008D2900008D2900008D290000E7
:100140008D2900008D2900008D2900008D290000D7
:100150008D2900008D2900008D2900008D290000C7
:100160008D2900008D2900008D2900008D290000B7
:100170008D2900008D2900008D2900008D290000A7
:100180008D2900008D2900008D2900008D29000097
:100190008D2900008D2900008D2900008D29000087
:1001A0008D2900008D2900008D2900008D29000077
:1001B0008D2900008D2900008D2900008D29000067
:1001C0008D2900008D2900008D2900008D29000057
:1001D0008D2900008D2900008D2900008D29000047
:1001E0008D2900008D2900008D2900008D29000037
:1001F0008D2900008D2900008D2900008D29000027
:080200008D2900008D2900008A
:1029A80000F010F8FFF7D8FF00F04CFBFFF7EEFF40
:1029B80000F0FAFAFFF79CFFFFF7CEFEFFF72CFEB8
:0429C800FCE7FEE743
:10294C0081B01CF8019B0BF8019BBBEB0A0FF8D173
:04295C0001B070470F
:1028B80081B04FF000094FF0000CBDEB0A0F04DCAB
:1028C800BDEB0B0F01DBD446EA464BF8049BBBEB90
:1028D8000A0FFAD1BCEB0A0F05DDE246D9F800B0C1
:0A28E8000BF1040BF1E701B070479B
:1028F80081B0CDF800E0012207210020FFF780FD1C
:102908000E4801460020FFF763FE42F28051202066
:10291800FFF7AAFD0A480221FFF7CAFD40F6FE07A5
:10292800C0F23D0700BF00BF7F1EFDD100BF00BF42
:1029380000BFDDF800E001B0704700BF7C0B00006D
:04294800000000206B
:1024080081B0CDF800E05FFA81FA5FFA82FB0FE055
:102418005FFA8BF15FFA8AF0FFF7D8FC0DE05FFAFC
:102428008BF15FFA8AF0FFF7F1FD06E0012004E086
:102438000028EDD00128F2D0F8E7DDF800E001B07F
:022448007047DB
:101DD40081B0CDF800E091E0012904D110215A48E6
:101DE400FFF752FE03E010215748FFF737FEA5E046
:101DF400012904D101215448FFF746FE03E00121E3
:101E04005148FFF72BFE99E0012904D101214F48E5
:101E1400FFF73AFE03E001214C48FFF71FFE8DE077
:101E2400012904D104214A48FFF72EFE03E00421CE
:101E34004748FFF713FE81E0012904D110214448EB
:101E4400FFF722FE03E010214148FFF707FE75E08B
:101E5400012904D120213E48FFF716FE03E020218A
:101E64003B48FFF7FBFD69E0012904D10121394812
:101E7400FFF70AFE03E001213648FFF7EFFD5DE0BE
:101E8400012904D110213448FFF7FEFD03E010219D
:101E94003148FFF7E3FD51E0012904D140212F48E7
:101EA400FFF7F2FD03E040212C48FFF7D7FD45E0A2
:101EB400012904D180212948FFF7E6FD03E08021B0
:101EC4002648FFF7CBFD39E0012904D104211F483E
:101ED400FFF7DAFD03E004211C48FFF7BFFD2DE006
:101EE400012904D108211948FFF7CEFD03E0082198
:101EF4001648FFF7B3FD21E0012020E000283FF45D
:101F04006BAF01283FF474AF02283FF47DAF032880
:101F14003FF486AF04283FF48FAF05283FF498AF11
:101F240006283FF4A1AF0728AAD00828B4D009286E
:101F3400BED00A28C8D00B28D2D0DDE70020DDF8B7
:101F440000E001B0704700BF00C0054000900540AC
:101F54000080054000B0054000D0054000A00540C9
:101A8C0081B0CDF800E0002440F240031BB240F2DC
:101A9C00001212B21A4393B2002210B4FFF746FBA5
:0A1AAC0001B0DDF800E001B0704762
:1011380082B0CDF800E05FFA81F8D5B29FB29DF891
:101148000830F54C00EA0404A1462046FFF74AFBA4
:10115800F24CA54208D109F580666FEA0805EDB2A0
:1011680034682C40346008E0ED4CA54205D109F5FF
:1011780080652C6844EA08042C6040F2010407EA00
:101188000404A4B234B109F5A2652C6844EA080441
:101198002C6007E009F5A2666FEA0805EDB234682D
:1011A8002C40346040F2020407EA0404A4B234B1CB
:1011B80009F214552C6844EA08042C6007E009F287
:1011C80014566FEA0805EDB234682C40346040F2DA
:1011D800080407EA0404A4B234B109F20C552C68D7
:1011E80044EA08042C6007E009F20C566FEA080587
:1011F800EDB234682C40346040F2100407EA04046D
:10120800A4B234B109F5A0652C6844EA08042C603E
:1012180007E009F5A0666FEA0805EDB234682C40CE
:10122800346040F2200407EA0404A4B234B109F29D
:1012380004552C6844EA08042C6007E009F20456B7
:101248006FEA0805EDB234682C40346040F240047F
:1012580007EA0404A4B234B109F5A1652C6844EA8C
:1012680008042C6007E009F5A1666FEA0805EDB2ED
:1012780034682C40346041F2000407EA0404A4B244
:10128800012C13D042F2000407EA0404A4B2012C92
:101298000CD044F2000407EA0404A4B2012C05D0DF
:1012A800DEB24B46B8B25FFA88F53CE00020002673
:1012B800DAB2BBB207465FFA88F04946082E13D265
:1012C80020FA06F4E4B204F00104E4B24CB175006B
:1012D8002DB2032424B2AC4024B247EA04052F46B9
:1012E800FFE7761CF6B2E9E701F6C476FD433468F9
:1012F8002C40346001F23C56C543EDB234682C40B2
:10130800346001F5A166C543EDB234682C40346001
:1013180001F20456C543EDB234682C403460C5B2BE
:1013280098B20B46D6B2002141F2000400EA040448
:10133800A4B23CB300220F46E9B2082A13D221FA1C
:1013480002F4E4B204F00104E4B24CB155002DB249
:10135800012424B2AC4024B247EA04052F46FFE733
:10136800521CD2B2E9E703F6C4752C683C432C60E2
:1013780003F5A1652C680C432C603D461F4683B2DB
:10138800C8B203E01F4683B2E8B20D4642F2000439
:1013980003EA0404A4B26CB30022A8463946082A1A
:1013A80013D220FA02F4E4B204F00104E4B24CB11E
:1013B80055002DB2032424B2AC4024B248EA0405F7
:1013C800A846FFE7521CD2B2E9E701F6C4752C68BB
:1013D80044EA08042C6001F23C552C6804432C6054
:1013E80001F5A1652C6804432C60F7B20E46C2B221
:1013F80098B205E00197C2B298B2F7B2A846019E2A
:1014080044F2000400EA0404A4B284B30023D1B275
:10141800082B14D221FA03F4E4B204F00104E4B274
:1014280054B15D002DB2032424B2AC4024B248EA82
:10143800040422469046FFE75B1CDBB2E8E706F6A9
:10144800C4752C6844EA08042C6006F23C552C68E4
:101458000C432C6006F5A1652C680C432C6006F241
:1014680004552C680C432C60FBB2324602E0D1B222
:101478003246FBB240F2800400EA0404A4B274B11C
:1014880040F2400400EA0404A4B22CB102F5A365BA
:101498002C680C432C6001E00120FAE006E002F51C
:1014A800A366CD43EDB234682C40346040F200149A
:1014B80000EA0404A4B22CB102F21C552C680C43B7
:1014C8002C6006E002F21C56CD43EDB234682C4085
:1014D800346040F2002400EA0404A4B2002C3AD09C
:1014E800104CA24240F2000500D001250E4CA24249
:1014F80040F2000400D0012425400C4CA24240F2E6
:10150800000400D001242540094CA24240F2000406
:1015180000D0012425400DE000F0FFFF000000008E
:101528000100000000C0054000B0054000900540E3
:1015380000100640594CA24240F2000400D0012499
:1015480005EA04040CB10120A3E002F5A5652C68A6
:101558000C432C602AE0524CA24240F2000500D114
:101568000125504CA24240F2000400D10124254339
:101578004D4CA24240F2000400D1012425434B4CBB
:10158800A24240F2000400D101242543434CA24268
:1015980040F2000400D1012445EA040434B102F504
:1015A800A566CD43EDB234682C40346040F60004A3
:1015B80000EA0404A4B22CB102F5A6652C680C4319
:1015C8002C6006E002F5A666CD43EDB234682C40E7
:1015D800346040F2004400EA0404A4B22CB102F5DD
:1015E80084652C680C432C6006E002F58466CD43C4
:1015F800EDB234682C4034600BB9002049E00F2B61
:1016080001D9012045E0002700208DF80430C3B23D
:1016180010469DF80420082B12D221FA03F4E4B2F4
:1016280004F00104E4B244B19D002DB24FF00F0460
:10163800AC4047EA04052F46FFE75B1CDBB2EAE74C
:1016480000F22C56FD4334682C40346000260023F9
:101658008DF80430CBB29DF80410082913D223FA70
:1016680001F4E4B204F00104E4B24CB1D5B28C0048
:1016780024B205FA04F446EA040425462E46FFE798
:10168800491CC9B2E9E700F22C552C6834432C6098
:101698000020DDF800E002B0704700BF00500640AF
:1016A80000C0054000B0054000900540001006400D
:1007EC0081B0664900EA010108467DE06449096868
:1007FC0041F0010262490A60BEE06149096841F0BA
:10080C0002025F490A60B7E05D49096841F00402E1
:10081C005B490A60B0E05A49096841F0080258493E
:10082C000A60A9E05649096841F0100254490A606F
:10083C00A2E05349096841F0200251490A609BE04B
:10084C004F49096841F040024D490A6094E04C4917
:10085C00096841F080024A490A608DE048490968FC
:10086C0041F4807246490A6086E04549096841F4C2
:10087C00007243490A607FE04149096841F4806293
:10088C003F490A6078E03E49096841F400623C49FE
:10089C000A6071E03A49096841F4805238490A60AB
:1008AC006AE03749096841F4005235490A6063E04F
:1008BC003349096841F4804231490A605CE03049AF
:1008CC00096841F400422E490A6055E02C49096838
:1008DC0041F480322A490A604EE02949096841F402
:1008EC00003227490A6047E0264988423FF47EAF30
:1008FC00254988423FF481AF244988423FF484AFB4
:10090C00234988423FF487AF224988423FF48AAF9B
:10091C00214988423FF48DAF204988423FF490AF83
:10092C001F4988423FF493AF1E4988423FF496AF6B
:10093C001D4988423FF499AF1C4988423FF49CAF53
:10094C001B4988423FF49FAF1A4988423FF4A2AF3B
:10095C00194988423FF4A5AF184988423FF4A8AF23
:10096C00174988423FF4ABAF164988423FF4AEAF0B
:10097C00154988423FF4B1AF01B0704700F0FFFF5A
:10098C0008E60F40008005400090054000A005409F
:10099C0000B0054000C0054000D0054000E0054017
:1009AC0000F0054000000640001006400020064004
:1009BC0000300640004006400050064000600640F3
:0C09CC00007006400080064000900640CD
:101A600081B0CDF800E0002440F240031BB240F208
:101A7000001212B21A4393B2012210B4FFF75CFBBA
:0A1A800001B0DDF800E001B070478E
:1020140081B0CDF800E091E0012904D120215A4893
:10202400FFF732FD03E020215748FFF717FDA5E035
:10203400012904D102215448FFF726FD03E00221BF
:102044005148FFF70BFD99E0012904D120214F48A5
:10205400FFF71AFD03E020214C48FFF7FFFC8DE059
:10206400012904D104214A48FFF70EFD03E00421AD
:102074004748FFF7F3FC81E0012904D110214448CB
:10208400FFF702FD03E010214148FFF7E7FC75E08C
:10209400012904D120213E48FFF7F6FC03E020216A
:1020A4003B48FFF7DBFC69E0012904D102213948F0
:1020B400FFF7EAFC03E002213648FFF7CFFC5DE0BE
:1020C400012904D140213348FFF7DEFC03E040211D
:1020D4003048FFF7C3FC51E0012904D110212E48F8
:1020E400FFF7D2FC03E010212B48FFF7B7FC45E0D3
:1020F400012904D120212848FFF7C6FC03E0202150
:102104002548FFF7ABFC39E0012904D104211F481D
:10211400FFF7BAFC03E004211C48FFF79FFC2DE005
:10212400012904D108211948FFF7AEFC03E0082176
:102134001648FFF793FC21E0012020E000283FF43B
:102144006BAF01283FF474AF02283FF47DAF03283E
:102154003FF486AF04283FF48FAF05283FF498AFCF
:1021640006283FF4A1AF0728AAD00828B4D009282C
:10217400BED00A28C8D00B28D2D0DDE70020DDF875
:1021840000E001B0704700BF00C00540009005406A
:0C2194000080054000B0054000A00540A0
:1025D80081B0CDF800E009E00846FFF7E7FB0AE024
:1025E8000846FFF7D9FD06E0012004E00028F3D0F3
:0E25F8000128F5D0F8E7DDF800E001B07047EB
:101DB40081B0CDF800E0016808460449FFF770FFE0
:101DC4000020DDF800E001B0704700BF902D000056
:101CA40081B0CDF800E00A4601460348FFF746F844
:0C1CB400DDF800E001B0704700000240C5
:100D400083B0CDF800E001920A46014601985C4B61
:100D5000994216D100245B4B1C60012464B25A4BAB
:100D60001C605A4C5A4B1C605A4C5B4B1C605B4CD1
:100D70005B4B1C605B4C5C4B1C605C4C5C4B1C60BC
:100D800065E15C4B994216D100245B4B1C60012449
:100D900064B25A4B1C605A4C4D4B1C60594C4E4B24
:100DA0001C60594C4E4B1C60584C4F4B1C60584CAF
:100DB0004F4B1C604BE1574B994216D10024564BC8
:100DC0001C60012464B2554B1C60554C404B1C60A8
:100DD000544C414B1C60544C414B1C60534C424B97
:100DE0001C60534C424B1C6031E1524B994216D16E
:100DF0000024514B1C60012464B2504B1C60504CC9
:100E0000334B1C604F4C344B1C604F4C344B1C60BC
:100E10004E4C354B1C604E4C354B1C6017E14D4B16
:100E2000994216D100244C4B1C60012464B24B4BF8
:100E30001C604B4C264B1C604A4C274B1C604A4C98
:100E4000274B1C60494C284B1C60494C284B1C60AC
:100E5000FDE0484B994216D10024474B1C60012409
:100E600064B2464B1C60464C194B1C60454C1A4BF7
:100E70001C60454C1A4B1C60444C1B4B1C60444C82
:100E80001B4B1C60E3E0434B994216D10024424BBC
:100E90001C60012464B2414B1C60414C0C4B1C6033
:100EA000404C0D4B1C60404C0D4B1C603F4C0E4B9E
:100EB0001C603F4C0E4B1C60C9E03E4B99427BE0EE
:100EC00000000240B000002000C4FC43FFFFFFFF11
:100ED000440100201D17000048010020D50A000031
:100EE0004C010020410C000050010020FFFFFFFFDB
:100EF0005401002000100240B400002004C4FC4350
:100F0000FFFFFFFF39170000F10A0000790C000015
:100F1000FFFFFFFF00200240B800002008C4FC4390
:100F2000FFFFFFFF55170000110A0000090C000029
:100F3000FFFFFFFF00300240BC0000200CC4FC4358
:100F4000FFFFFFFF01170000ED0B0000250C000064
:100F5000FFFFFFFF00000C40C000002010C4FC4356
:100F6000FFFFFFFF711700005D0C0000290B000060
:100F7000FFFFFFFF00100C40C400002014C4FC431E
:100F8000FFFFFFFF950C0000D10B00002D0A0000B1
:100F9000FFFFFFFF00200C40C800002018C4FC43E6
:100FA000FFFFFFFFB90A0000B50B0000490A00006F
:100FB000FFFFFFFF00300C4016D10024414B1C60A6
:100FC000012464B2404B1C60404C414B1C60414CBE
:100FD000414B1C60414C424B1C60424C424B1C60DC
:100FE000424C434B1C6032E0424B994216D10024E4
:100FF000414B1C60012464B2404B1C60404C344B9C
:101000001C60404C344B1C603F4C354B1C603F4CCB
:10101000354B1C603E4C364B1C6018E03D4B9942F2
:1010200015D100243C4B1C60012464B23B4B1C6076
:101030003B4C274B1C603B4C274B1C603A4C284BCD
:101040001C603A4C284B1C60394C294B1C600192A7
:101050000291FFF777FA0299019A01F22004102316
:101060002360344B9A4207D106260D1D01242B68BC
:1010700064F304132B6006E014260D1D00242B6876
:1010800064F304132B60FFF7A7FA40F2E83300FB88
:1010900003F506FB02F4B5FBF4F318466343EB1AC1
:1010A0000BB9401EFFE77F2801D97F20FFE7012809
:1010B00001D20120FFE701F20C031860DDF800E027
:1010C00003B07047CC0000201CC4FC43FFFFFFFFAF
:1010D000440100209D0A000048010020990B0000F7
:1010E0004C010020650A000050010020FFFFFFFFB7
:1010F0005401002000800B40D000002020C4FC439D
:10110000FFFFFFFF810A0000450B0000D909000026
:10111000FFFFFFFF00900B40D400002024C4FC43DD
:10112000FFFFFFFF0D0B0000610B0000F509000041
:08113000FFFFFFFFD0CF3200EA
:1005440081B0CDF800E040F2000B82460AF1D801F8
:1005540009788B4539D20C210BFB01F10AEB01011F
:100564008C460CF108010978A9B90CF10801097845
:10057400CCB20CF1060109888BB20CF104010978A4
:10058400CAB2DCF800100846D1B2002210B400F060
:10059400D1FD01B014E00CF108010978CCB20CF1E2
:1005A400060109888BB20CF104010978CAB2DCF89F
:1005B40000100846D1B20F2210B400F0BBFD01B008
:1005C4000BF1010B5FFA8BFBC0E7DDF800E001B033
:0205D40070476E
:0C05D80001480068704700BF18010020B7
:1021A00081B0CDF800E0016808460449FFF77AFDE8
:1021B0000020DDF800E001B0704700BF902D000066
:1024700081B0CDF800E011E00846FFF7EDFE16E070
:102480000846FFF709FF12E00846FFF7A9FE0EE035
:102490000846FFF7B7FE0AE0012008E00028EBD06D
:1024A0000128EDD02028EFD03028F1D0F4E7DDF876
:0624B00000E001B07047DE
:1022580081B0CDF800E0FFF7BDFC044A04490A60EC
:102268000020DDF800E001B0704700BF4D1D000000
:04227800140100202D
:101BDC0082B0CDF800E00346214A22490A60224A2D
:101BEC0022490A60224A23490A60234A23490A608F
:101BFC0001932348FEF7A0FC019B012252B221491C
:101C0C000A6000BF00BF00BFFFF762FDFEF7DEFCFD
:101C1C0040F2E83100FB01F210461901914205D95E
:101C2C00012252B218490A605A0804E0002252B24A
:101C3C0015490A601A46C100B1FBF2F1491C4B0868
:101C4C009A0912490A6003F03F0211490A606022A6
:101C5C0010490A60FFF72AFDDDF800E002B070477A
:101C6C004D1D000058010020FFFFFFFF5C0100200C
:101C7C00FFFFFFFF60010020FFFFFFFF640100205A
:101C8C00D82B000014C3FC4314062242241001403C
:081C9C00281001402C1001404A
:1016DC0081B0002149B2044801600448016004480B
:1016EC00016001B0704700BF000622422006224272
:0416FC00240622425C
:1016B80081B0012149B2044801600448016004482E
:1016C800016001B0704700BF000622422006224296
:0416D8002406224280
:1022980081B0CDF800E0FFF77FFA044A04490A60EC
:1022A8000020DDF800E001B0704700BF151D0000F8
:0422B80014010020ED
:1017A00082B0CDF800E00346214A22490A60224A6D
:1017B00022490A60224A23490A60234A23490A60CF
:1017C00001932348FEF7BEFE019B012252B221493C
:1017D0000A6000BF00BF00BFFFF77CFAFEF7FCFE07
:1017E00040F2E83100FB01F210461901914205D99F
:1017F000012252B218490A605A0804E0002252B28B
:1018000015490A601A46C100B1FBF2F1491C4B08A8
:101810009A0912490A6003F03F0211490A606022E6
:1018200010490A60FFF744FADDF800E002B07047A3
:10183000151D000058010020FFFFFFFF5C01002084
:10184000FFFFFFFF60010020FFFFFFFF640100209A
:10185000B42C00001CC3FC43140626422430014073
:08186000283001402C3001404A
:100CD40081B0002149B2044801600448016004481D
:100CE400016001B0704700BF00062642200626427C
:040CF400240626426A
:100CB00081B0012149B20448016004480160044840
:100CC000016001B0704700BF0006264220062642A0
:040CD000240626428E
:1021E00081B0CDF800E0FFF7D7FB044A04490A604C
:1021F0000020DDF800E001B0704700BFF91C0000CE
:0422000014010020A5
:1019980082B0CDF800E00346214A22490A60224A73
:1019A80022490A60224A23490A60234A23490A60D5
:1019B80001932348FEF7C2FD019B012252B221493F
:1019C8000A6000BF00BF00BFFFF7A4F9FEF700FEE2
:1019D80040F2E83100FB01F210461901914205D9A5
:1019E800012252B218490A605A0804E0002252B291
:1019F80015490A601A46C100B1FBF2F1491C4B08AF
:101A08009A0912490A6003F03F0211490A606022EC
:101A180010490A60FFF76CF9DDF800E002B0704782
:101A2800F91C000058010020FFFFFFFF5C010020A7
:101A3800FFFFFFFF60010020FFFFFFFF64010020A0
:101A4800FC2A000008C3FC4314061C4224E00040A2
:081A580028E000402CE00040F2
:100D1C0081B0002149B204480160044801600448D4
:100D2C00016001B0704700BF00061C4220061C4247
:040D3C0024061C422B
:100CF80081B0012149B204480160044801600448F8
:100D0800016001B0704700BF00061C4220061C426B
:040D180024061C424F
:1022040081B0CDF800E0FFF7C9FA044A04490A6036
:102214000020DDF800E001B0704700BF151D00008C
:042224001401002081
:1024B80083B0CDF800E0024610460D228DF80820C2
:1024C8000A228DF809201FE0FFF776FE23E0027844
:1024D8002AB10190FFF770FE0198401CF7E71AE057
:1024E80002782AB10190FFF767FE0198401CF7E7D0
:1024F80002AA1046FFF760FE0DF109021046FFF729
:102508005BFE08E0062007E00029DDD00129DED0C7
:102518000229E5D0F6E70020DDF800E003B07047B7
:1021C00081B0CDF800E00178CCB2A0B2034C246815
:1021D000A0470020DDF800E001B0704714010020A6
:101D840081B00449096801B1FBE70349086001B067
:0C1D9400704700BF1403184200C000405C
:101D680081B00449096801B1FBE70349086001B083
:0C1D7800704700BF14031A4200D0004066
:101CF80081B00449096801B1FBE70349086001B0F4
:0C1D0800704700BF14031C4200E00040C4
:101CDC0081B00449096801B1FBE70349086001B010
:0C1CEC00704700BF14031E4200F00040CF
:101CC00081B00449096801B1FBE70349086001B02C
:0C1CD000704700BF1403204200000140D8
:101D4C0081B00449096801B1FBE70349086001B09F
:0C1D5C00704700BF140322420010014039
:101D300081B00449096801B1FBE70349086001B0BB
:0C1D4000704700BF140324420020014043
:101D140081B00449096801B1FBE70349086001B0D7
:0C1D2400704700BF14032642003001404D
:1027600081B0CDF800E0132241494248FFF76EFEE8
:1027700042F6FE47C0F231177F1EFDD100BF00BFF9
:1027800000BF00BF00BF3C48FFF7CEFE3A480078CC
:102790003A49FFF793FD3A480121FFF78DFE0221E8
:1027A0003648FFF789FE374800783449FFF786FD41
:1027B00035480121FFF780FE02213048FFF77CFEFB
:1027C000324800782D49FFF779FD31480121FFF7A4
:1027D00073FE02212948FFF76FFE2E480078274933
:1027E000FFF76CFD2C480121FFF766FE022123480C
:1027F000FFF762FE294800782049FFF75FFD28486F
:102800000121FFF759FE02211C48FFF755FE25481C
:1028100000781A49FFF752FD23480121FFF74CFECB
:1028200002211648FFF748FE2048FFF797FD1F4892
:1028300000881249FFF76AFD1D480121FFF73CFEA1
:1028400002210E48FFF738FE1A480221FFF734FE36
:1028500041F6FE27C0F2B7077F1EFDD100BF00BFC3
:1028600000BF00BF00BFDDF800E001B0704700BF4F
:10287000A42F00001C2F0000D8000020E200002040
:1028800010000020D90000201C000020DA000020E9
:102890002C000020DB0000203C000020DC00002099
:1028A0004A000020DD0000205A000020EC0000203B
:0828B000690000207A000020FD
:10244C0081B0CDF800E00446054B1A700846FFF742
:10245C0083FD2046FFF79EFCDDF800E001B07047DD
:04246C0068010020E3
:101F6400026806490A60011D0A6805490A6000F210
:101F740008010A6803490A60704700BF6C01002029
:081F840070010020780100202B
:101DA00000F230011C310A6801490A60704700BF27
:041DB000740100209A
:1025280084B0CDF800E0019014218320FFF778FEF5
:102538000199491C03918320FFF746FD0399087010
:10254800FFF79AFE04218220FFF76AFE0199891C91
:1025580003918220FFF738FD03990870FFF78CFE7E
:1025680007218020FFF75CFE0199C91C0391802098
:10257800FFF72AFD03990870FFF77EFE02218920E4
:10258800FFF74EFE0199091D03918920FFF71CFDF5
:1025980003990870FFF770FE1D218420FFF740FEA5
:1025A8000199491D03918420FFF70EFD03990870D6
:1025B800FFF762FE019903918120FFF705FD03995A
:0E25C8000870FFF759FEDDF800E004B0704720
:1022280082B0CDF800E001AA1070521C1170FFF7BF
:10223800A9FA01AB054A127819460023D0B2022246
:10224800FFF70EFBDDF800E002B0704768010020E0
:10178C0040F2000212B201210148017010B2704700
:04179C00AD0000207C
:1018680085B0CDF800E0ADF80C200A468DF81030B0
:1018780040F20004ADF808401146424C247854B1B7
:1018880001910021404C2468A0470199FFF774F9A1
:1018980000253C4C2570BDF80C40012C0DD10C786E
:1018A8000721E0B2394C2468A047BDF90840044339
:1018B800ADF80840FFF760F957E0BDF80C40022C7E
:1018C8001CD10C7801910321E0B2304C2468A04768
:1018D8000199BDF908400443ADF808404C1C204666
:1018E800FFF74AF904780521E0B2284C2468A0479C
:1018F800BDF908400443ADF8084036E00C78019182
:101908000321E0B2214C2468A0470199BDF90840A1
:101918000443ADF808404B1CFFF72EF91946BDF8F3
:101928000C40641EA4B2ADF80C40012C12D90C78FE
:1019380001910121E0B2154C2468A0470199BDF935
:1019480008400443ADF808404C1C2346FFF714F93F
:101958001946E4E70C780521E0B20C4C2468A0474E
:10196800BDF908400443ADF808409DF81040012C2B
:1019780002D10125034C2570BDF90800DDF800E00F
:1019880005B07047AD0000206C01002070010020F8
:10171C0081B0CDF800E0CAB2C1B20348FEF75CFF5D
:0C172C00DDF800E001B070470000024052
:1005E40081B04B009BB213439BB2036001B07047D0
:1017380081B0CDF800E0CAB2C1B20348FEF74EFF4F
:0C174800DDF800E001B070470010024026
:1017540081B0CDF800E0CAB2C1B20348FEF740FF41
:0C176400DDF800E001B0704700200240FA
:1017000081B0CDF800E0CAB2C1B20348FEF76AFF6B
:0C171000DDF800E001B07047003002403E
:1017700081B0CDF800E0CAB2C1B20348FEF732FF33
:0C178000DDF800E001B0704700000C40F4
:100C940081B0CDF800E0CAB2C1B20348FFF7A0FCAE
:0C0CA400DDF800E001B0704700100C40CB
:100AB80081B0CDF800E0CAB2C1B20348FFF78EFD9D
:0C0AC800DDF800E001B0704700200C4099
:100A9C0081B0CDF800E0CAB2C1B20348FFF79CFDAB
:0C0AAC00DDF800E001B0704700300C40A5
:100A800081B0CDF800E0CAB2C1B20348FFF7AAFDB9
:0C0A9000DDF800E001B0704700800B4072
:100B0C0081B0CDF800E0CAB2C1B20348FFF764FD72
:0C0B1C00DDF800E001B0704700900B40D5
:100AD40081B0CDF800E0CAB2C1B20348FFF788FD87
:0C0AE400DDF800E001B0704700000240A7
:1005F40082B0CDF800E04FF000045D4B984205D185
:100604005C4B1D685C4B1B6801935BE05B4B984241
:1006140006D15B4B1C685B4B1B680193254651E07C
:10062400594B984206D1594B1C68594B1B6801938E
:10063400234646E0574B984206D1574B1C68574B0C
:100644001B68019323463CE0554B984206D1554B19
:100654001C68554B1B680193234632E0534B984268
:1006640006D1534B1C68534B1B680193234628E067
:10067400514B984206D1514B1C68514B1B68019356
:1006840023461EE04F4B984206D14F4B1C684F4BFC
:100694001B680193234614E04D4B984206D14D4B01
:1006A4001C684D4B1B68019323460AE04B4B984250
:1006B40006D14B4B1C684B4B1B680193234600E04F
:1006C40023461D4600F208031960072A05D0032AB1
:1006D40003D004462846D1B215E02E46D1B20246D4
:1006E4002846131D1C68C4F380135BB148B126B9B6
:1006F4000420019CA047012036E0731E1C462646B8
:10070400FFE7EEE71446231D1960FFF70BFEFFF722
:1007140009FEFFF707FE024625462B1D1C68C4F39D
:1007240000034BB138B122B90420019CA047012039
:100734001AE0521EFFE7F0E72B1D1C68C4F34003C8
:100744006BB1012902D0032900D008E02B1D1C68DD
:10075400C4F300131BB92C1D40F2040323602B1DAA
:100764001C68C4F34003D8B2DDF800E002B070475F
:1007740000000240B00000201C01002000100240D4
:10078400B40000202001002000200240B800002016
:100794002401002000300240BC0000202801002079
:1007A40000000C40C00000202C01002000100C4070
:1007B400C40000203001002000200C40C8000020AC
:1007C4003401002000300C40CC000020380100200F
:1007D40000800B40D00000203C01002000900B4022
:0807E400D400002040010020B8
:0C02BC0001490860704700BF907FB84205
:0C02C80001490860704700BF807FB84209
:0C02D40001490860704700BF807FB24203
:0C02980001490860704700BF887FB04239
:0C02A40001490860704700BF907FB04225
:0C02B00001490860704700BF947FB04215
:0C03040001490860704700BF807FB642CE
:0C03100001490860704700BF907FBA42AE
:0C031C0001490860704700BF987FB442A0
:0C02E00001490860704700BF9C7FB442D9
:0C02EC0001490860704700BF887FB242E3
:0C02F80001490860704700BF8C7FB242D3
:0C022C0001490860704700BF947FB84291
:0C02380001490860704700BF847FB84295
:0C02440001490860704700BF947FB2427F
:0C02080001490860704700BF887FB042C9
:0C02140001490860704700BF907FB042B5
:0C02200001490860704700BF947FB042A5
:0C02740001490860704700BF847FB6425B
:0C02800001490860704700BF987FB6423B
:0C028C0001490860704700BF907FB44239
:0C02500001490860704700BF947FB44271
:0C025C0001490860704700BF887FB24273
:0C02680001490860704700BF8C7FB24263
:1003280040F22607C0F200077F1EFDD100BF00BFC4
:0803380000BF00BF00BF7047C9
:100AF00081B0CDF800E0CAB2C1B20348FFF77AFD79
:0C0B0000DDF800E001B07047001002407A
:100A100081B0CDF800E0CAB2C1B20348FFF7EAFDE9
:0C0A2000DDF800E001B07047002002404B
:100BEC0081B0CDF800E0CAB2C1B20348FFF7FCFCFB
:0C0BFC00DDF800E001B07047003002405E
:100C5C0081B0CDF800E0CAB2C1B20348FFF7C4FCC2
:0C0C6C00DDF800E001B0704700000C4013
:100BD00081B0CDF800E0CAB2C1B20348FFF70AFD08
:0C0BE000DDF800E001B0704700100C4090
:100BB40081B0CDF800E0CAB2C1B20348FFF718FD16
:0C0BC400DDF800E001B0704700200C409C
:100B980081B0CDF800E0CAB2C1B20348FFF726FD24
:0C0BA800DDF800E001B0704700300C40A8
:100B440081B0CDF800E0CAB2C1B20348FFF750FD4E
:0C0B5400DDF800E001B0704700800B40AD
:100B600081B0CDF800E0CAB2C1B20348FFF742FD40
:0C0B7000DDF800E001B0704700900B4081
:100B800049F63E47C0F200077F1EFDD100BF00BFFF
:080B900000BF00BF00BF704769
:101FD00082B0CDF800E08DF80400FFF7D7FB01AA2E
:101FE0000B4909780123C8B211460122FFF73CFCD6
:101FF00001AA074909780023C8B211460122FFF758
:102000005BFD9DF80400DDF800E002B0704700BF02
:042010006801002043
:101AB80085B0CDF800E0ADF80C200A468DF810305E
:101AC80040F20004ADF8084011463F4C247854B168
:101AD800019101213D4C2468A0470199FFF74CF87A
:101AE8000025394C2570BDF80C40012C0CD1084656
:101AF8000721374C2468A047BDF908400443ADF8D6
:101B08000840FFF739F851E0BDF80C40022C19D114
:101B1800019108460B212E4C2468A0470199BDF974
:101B280008400443ADF808404C1C2046FFF724F851
:101B38000521274C2468A047BDF908400443ADF8A7
:101B4800084033E0019108460B21214C2468A04746
:101B58000199BDF908400443ADF808404B1CFFF754
:101B68000BF81946BDF80C40641EA4B2ADF80C4041
:101B7800012C11D9019108460921154C2468A04768
:101B88000199BDF908400443ADF808404C1C2346B0
:101B9800FEF7F2FF1946E5E7084605210C4C2468D4
:101BA800A047BDF908400443ADF808409DF810402F
:101BB800012C02D10125044C2570BDF90800DDF87F
:101BC80000E005B0704700BFAD0000206C010020A8
:041BD8007801002070
:100C400081B0CDF800E0CAB201460348FFF778FB57
:0C0C5000DDF800E001B070470000024039
:1003400084B0CDF800E0044603914FF0000302931F
:100350005E4B9C4206D15E4B1B6802935D4B1B6853
:10036000019358E05C4B9C4206D15C4B1B680293A6
:100370005B4B1B6801934EE05A4B9C4206D15A4B93
:100380001B680293594B1B68019344E0584B9C42F5
:1003900006D1584B1B680293574B1B6801933AE0F8
:1003A000564B9C4206D1564B1B680293554B1B681B
:1003B000019330E0544B9C4206D1544B1B6802938E
:1003C000534B1B68019326E0524B9C4206D1524B83
:1003D0001B680293514B1B6801931CE0504B9C42DD
:1003E00006D1504B1B6802934F4B1B68019312E0E0
:1003F0004E4B9C4206D14E4B1B6802934D4B1B68E3
:10040000019308E04C4B9C4205D14C4B1B68029376
:100410004B4B1B680193072A03D00B2A01D02046BF
:1004200017E0029E2046D1B2031D1C68C4F380135E
:1004300073B1029B4BB126B90320019CA047012058
:1004400040E0731E1A46134600E033461E46EBE7B3
:10045000CAB2031D1A60FFF767FFFFF765FFFFF7DA
:1004600063FF029E031D1C68C4F3000363B1029B7B
:100470003BB126B90320019CA047012022E0711E58
:1004800000E031460E46EDE7031D1C68C4F340034F
:1004900073B1092A02D00B2A00D008E0031D1C68A2
:1004A000C4F300131BB9041D40F20403236004E0ED
:1004B00000F208031C68039B1C70031D1C68C4F336
:1004C0004003D8B2DDF800E004B0704700000240FD
:1004D000B00000201C01002000100240B4000020E9
:1004E0002001002000200240B8000020240100204C
:1004F00000300240BC0000202801002000000C4019
:10050000C00000202C01002000100C40C40000207E
:100510003001002000200C40C800002034010020E1
:1005200000300C40CC0000203801002000800B403F
:10053000D00000203C01002000900B40D40000209F
:040540004001002056
:100C780081B0CDF800E0CAB201460348FFF75CFB3B
:0C0C8800DDF800E001B0704700100240F1
:100C080081B0CDF800E0CAB201460348FFF794FB73
:0C0C1800DDF800E001B070470020024051
:100C240081B0CDF800E0CAB201460348FFF786FB65
:0C0C3400DDF800E001B070470030024025
:100B280081B0CDF800E0CAB201460348FFF704FCE3
:0C0B3800DDF800E001B0704700000C4048
:100A2C0081B0CDF800E0CAB201460348FFF782FC62
:0C0A3C00DDF800E001B0704700100C4035
:100A480081B0CDF800E0CAB201460348FFF774FC54
:0C0A5800DDF800E001B0704700200C4009
:100A640081B0CDF800E0CAB201460348FFF766FC46
:0C0A7400DDF800E001B0704700300C40DD
:1009D80081B0CDF800E0CAB201460348FFF7ACFC8D
:0C09E800DDF800E001B0704700800B401B
:1009F40081B0CDF800E0CAB201460348FFF79EFC7F
:0C0A0400DDF800E001B0704700900B40EE
:1022800040F6FE07C0F23D077F1EFDD100BF00BF34
:0822900000BF00BF00BF704752
:1022BC0081B00A460021C5B21046032905D2431845
:1022CC0020221A70491CC9B2F7E7431800221A7071
:1022DC00491EC9B244180A23B5FBF3F203FB125290
:1022EC00D2B2303222700A22B5FBF2F2D2B2D5B29F
:0E22FC0002B902E0491EC9B2ECE701B070471A
:10235C0084B0CDF800E003900021029100218DF8AB
:10236C0004109DF8041010291DD28020FFF72AFEBE
:10237C0000F02001C9B20029F7D002221C498720A5
:10238C00FFF7FEFD1A490878020292B21949097842
:10239C000A4392B20299891802919DF80410491CC3
:1023AC008DF80410DDE702990A0913490A8091B2ED
:1023BC0001F2140292B202F0FF01C9B28DF80510BD
:1023CC0002F47F4189B2090AC9B28C20FFF726FFBB
:1023DC009DF805108D20FFF721FF0749098801F2B0
:1023EC00140203990A80DDF800E004B0704700BFC6
:0C23FC0000010020010100206A01002007
:101F8C0084B0CDF800E002918DF80C208DF804009F
:101F9C00FFF7F6FB01AC0A4B1B7801222146D8B2A5
:101FAC000123FFF75BFC064B1B789DF80C20029974
:101FBC00D8B20023FFF77AFDDDF800E004B07047DB
:041FCC006801002088
:10230C0081B00A4681B200208DB21146052805D253
:10231C000B1820221A70401CC0B2F7E70B180022D1
:10232C001A70401EC0B20C180A23B5FBF3F203FB63
:10233C00125292B2303222700A22B5FBF2F292B2F1
:10234C0095B202B902E0401EC0B2ECE701B0704792
:1026200081B0CDF800E08020FFF7D2FC3F49087070
:10263000202141F04001C9B20840C0B20028F2D0C8
:102640008E20FFF7C5FC3A49087000F00100C0B2C7
:1026500028B137480078C1B28E20FFF7E5FD334A34
:10266000107800F02001C9B21046007800F0400058
:10267000C0B241EA0000C0B200283BD002222D497E
:102680008720FFF783FC2B4800782B4A10801046E8
:102690000088010289B211802848007841EA0000D0
:1026A00010802749FFF732FE26480121FFF704FF7B
:1026B00002212348FFF700FF02221E498520FFF771
:1026C00065FC1C480078204A1080104600880102F2
:1026D00089B211801948007841EA00001080184939
:1026E000FFF714FE19480121FFF7E6FE0221144806
:1026F000FFF7E2FE16480221FFF7DEFE1548022131
:10270000FFF7DAFE14480221FFF7D6FE41F6FE2756
:10271000C0F2B70700BF00BF7F1EFDD100BF00BFE2
:1027200000BFDDF800E001B0704700BFAE00002040
:10273000AF00002000010020100100200101002056
:10274000E20000207B000020120100208900002010
:0C2750009700002099000020AB00002042
:1029CC0081B0CDF800E0344A344B354C354D364EA1
:1029DC004FF03011354801600021354801606FF02F
:1029EC00010003EA000133480160C3F3C00018B9C9
:1029FC00FFF704FEFFF702FEC3F3000018B101213C
:102A0C0049B22D4801602D48864203D92C492748EC
:102A1C00016021E02B48864203D92B4923480160F1
:102A2C001AE04CF25030864203D928491F48016005
:102A3C0012E047F23050864203D925491B48016009
:102A4C000AE0B6F57A5F03D922491848016003E021
:102A5C004FF03011154801601F4804601F48056095
:102A6C006FF0805002EA000111480160012149B267
:102A7C001B4801601B48016002F0805038B11A48B5
:102A8C00006800B9FBE7012149B218480160DDF884
:102A9C0000E001B0704700BF0300003010000000E0
:102AAC001E00800000000000C0D40100C0E00F40F8
:102ABC00B0E00F407CE00F40800FFC43A08601008B
:102ACC00960130008038010055013000D3003000F1
:102ADC00B20030007100300060E10F4064E10F4043
:102AEC007C16FC437816FC43002DFC437016FC430B
:1026080041F67E27C0F206077F1EFDD100BF00BF3E
:0826180000BF00BF00BF7047C6
:1029940081B002490248016001B07047C0D401000F
:0429A40018010020F6
:08298C0081B0FEE701B07047C5
:1029600081B04EF68850CEF20000016841F470014B
:10297000016000BF00BF00BF00BFF1EE100A40F4CD
:0A2980004000E1EE100A01B07047BC
:102FB00000B5DFF824B0DFF824A0DFF824C0FFF765
:102FC000C5FCDFF820B0DFF820A0DFF820C0FFF755
:102FD000BDFC00BD704700BF00000020AE00002017
:102FE0006C2E0000B0000020D80000207C2F0000D4
:10304C0000B5DFF810B0DFF810A0FFF72FFC00BDC3
:0C305C00704700BF000000207C01002035
:040B7C00A08601004E
:102AFC0000B00540100040050100000000B005408A
:102B0C002000400501000000000000000000000053
:102B1C0000000000000000000000000000000000A9
:102B2C000000000000000000000000000000000099
:102B3C000000000000000000000000000000000089
:102B4C000000000000000000000000000000000079
:102B5C000000000000000000000000000000000069
:102B6C000000000000000000000000000000000059
:102B7C000000000000000000000000000000000049
:102B8C000000000000000000000000000000000039
:102B9C000000000000000000000000000000000029
:102BAC000000000000000000000000000000000019
:102BBC000000000000000000000000000000000009
:0C2BCC00000000000000000002000000FB
:102BD80000F00540400040050100000000F00540FD
:102BE8008000400501000000000000000000000017
:102BF80000000000000000000000000000000000CD
:102C080000000000000000000000000000000000BC
:102C180000000000000000000000000000000000AC
:102C2800000000000000000000000000000000009C
:102C3800000000000000000000000000000000008C
:102C4800000000000000000000000000000000007C
:102C5800000000000000000000000000000000006C
:102C6800000000000000000000000000000000005C
:102C7800000000000000000000000000000000004C
:102C8800000000000000000000000000000000003C
:102C9800000000000000000000000000000000002C
:0C2CA8000000000000000000020000001E
:102CB40000A00540100040050100000000A00540F0
:102CC400200040050100000000000000000000009A
:102CD40000000000000000000000000000000000F0
:102CE40000000000000000000000000000000000E0
:102CF40000000000000000000000000000000000D0
:102D040000000000000000000000000000000000BF
:102D140000000000000000000000000000000000AF
:102D2400000000000000000000000000000000009F
:102D3400000000000000000000000000000000008F
:102D4400000000000000000000000000000000007F
:102D5400000000000000000000000000000000006F
:102D6400000000000000000000000000000000005F
:102D7400000000000000000000000000000000004F
:0C2D840000000000000000000200000041
:102D9000009005400400400502000000009005403E
:102DA000080008050200000000000000000000000C
:102DB0000000000000000000000000000000000013
:102DC0000000000000000000000000000000000003
:102DD00000000000000000000000000000000000F3
:102DE00000000000000000000000000000000000E3
:102DF00000000000000000000000000000000000D3
:102E000000000000000000000000000000000000C2
:102E100000000000000000000000000000000000B2
:102E200000000000000000000000000000000000A2
:102E30000000000000000000000000000000000092
:102E40000000000000000000000000000000000082
:102E50000000000000000000000000000000000072
:0C2E600000000000000000000200000064
:102E6C00496E697469616C697A696E672E2E2E00E1
:0C2E7C0050726F647563742049443A0082
:102E88004952204C45442043757272656E743A006D
:102E980050726F78696D69747920526174653A006F
:0E2EA800436D642052656769737465723A0069
:102EB600496E74657272757074204354524C3A00B0
:102EC600416D6269656E74204C696768743A005595
:102ED60070706572205468726573686F6C643A002E
:102EE6000050726F78696D6974793A20202000412C
:102EF6006D6269656E743A20202020200020002D26
:102F06002D2D2D2D2D2D2D2D2D2D2D2D2D2D2D2DEB
:042F16000020000097
:102F1C00BD020000C9020000D502000099020000A9
:102F2C00A5020000B102000005030000110300001F
:102F3C001D030000E1020000ED020000F902000098
:102F4C00FFFFFFFFFFFFFFFFFFFFFFFFFFFFFFFF85
:102F5C00FFFFFFFFFFFFFFFFFFFFFFFFFFFFFFFF75
:102F6C00FFFFFFFFFFFFFFFFFFFFFFFFFFFFFFFF65
:042F7C000000000051
:042F8000000000004D
:042F84000000000049
:042F88000000000045
:042F8C000000000041
:042F9000000000003D
:042F94000000000039
:042F98000000000035
:042F9C000000000031
:042FA000000000002D
:0C2FA4001D170000D50A0000410C0000C1
:00000001FF
