:1000000006EF10F00000000000EF00F0000000001C
:0A0010000000000000000000F3D71C
:0E001C00010177B102D08B9801D08B881200C1
:0E002A00010177B102D08B9601D08B861200B7
:0E003800010177B102D08D9601D08D861200A5
:0E004600010177B102D0899401D089841200A3
:0E005400010177B102D08B9C01D08B8C120081
:0E006200010177B102D08B9401D08B84120083
:0E007000010177B102D08B9A01D08B8A120069
:0E007E00010177B102D08B9E01D08B8E120053
:0E008C00010177B102D08A9201D08A8212005F
:0E009A00010177B102D08D9401D08D84120047
:0E00A800010177B102D08F9201D08F82120039
:0E00B600010177B102D08F9401D08F84120027
:0E00C400010177B102D08B9801D08B88120019
:0E00D200010177B102D08B9601D08B8612000F
:0E00E000010177B102D08A9401D08A84120007
:0E00EE00010177B102D08B9801D08B881200EF
:0E00FC00010177B102D08B9601D08B861200E5
:0E010A00010177B102D08F9001D08F801200DA
:0E011800010177B102D08B9A01D08B8A1200C0
:0E012600010177B102D08B9801D08B881200B6
:0E013400010177B102D08B9601D08B861200AC
:0E014200010177B102D08B9201D08B821200A6
:0E015000010177B102D08B9A01D08B8A120088
:0E015E00010177B102D08D9001D08D8012008A
:10016C000F0121B302D00000FBD777C11CFF120096
:0E017C00ACB202D00000FCD777C1ADFF12007C
:0E018A00010177B102D08B9001D08B80120062
:0E019800010177B102D0899001D08980120058
:0E01A600010177B102D08A9001D08A80120048
:0E01B400010177B102D08D9201D08D82120030
:0E01C200010177B102D0899801D0898812001E
:0E01D000010177B102D08B9801D08B8812000C
:0E01DE00010177B102D08B9601D08B86120002
:0E01EC00010177B102D0899201D08982120000
:0E01FA00010177B102D08B9C01D08B8C1200DA
:0E020800010177B102D08B9E01D08B8E1200C7
:0E021600010177B102D08B9801D08B881200C5
:0E022400010177B102D08B9601D08B861200BB
:10023200F250026EF29E0500FF6A0150FE6E0050FF
:08024200FD6E02BEF28E1200F7
:10024A0068B409D01F0E6614016E0150000A03E15A
:0A025A00010E006E01D0006A1200D0
:10026400C7B409D01F0EC514016E0150000A03E182
:0A027400010E006E01D0006A1200B6
:0A027E00000EA4BA010E006E12007B
:0C028800000E0F0121B3010E006E1200E9
:0A029400000E80B0010E006E120093
:0A029E00000E82B6010E006E120081
:0A02A800000E84B0010E006E12007B
:0A02B200000E82B0010E006E120073
:0A02BC00000E9EBA010E006E120043
:0A02C600000E82BA010E006E120055
:0A02D000000E82B4010E006E120051
:1002DA00B6C073F1B7C074F1B8C075F1B9C076F1A0
:1002EA000101716B726B7251120802E171518E0831
:1002FA0008E3A6DF005201E004D00101714B722B22
:10030A00F2D70101120E725D02E18F0E715D03E3F5
:10031A007B0E006E26D0668066A022D00001B65100
:10032A00B711B811B9111BE001017351741175119C
:10033A0076110EE113C1E1FF14C1E2FF050EE66E6C
:10034A0011C100F012C101F06FDF010E006E09D079
:10035A00010E0101735F000E745B755B765BDCD77F
:04036A00006A120013
:10036E001DCF01F00F0122A302D02299228901C0D4
:04037E0000F0120079
:0A038200000EACB2010E006E120076
:0A038C00000E82B8010E006E120090
:0A039600000E80B8010E006E120088
:0A03A000000E80B2010E006E120084
:0A03AA00000E82B8010E006E120072
:0A03B400000E82B8010E006E120068
:0A03BE00000E82B6010E006E120060
:0A03C800000E84B2010E006E120058
:0A03D200000E81B0010E006E120053
:0A03DC00000E82B2010E006E120046
:0A03E600000E82BA010E006E120034
:0A03F000000E82B6010E006E12002E
:0A03FA00000E82BC010E006E12001E
:0A040400000E82BE010E006E120011
:0A040E00000E82B8010E006E12000D
:10041800B2C073F1B3C074F1B4C075F1B5C076F170
:100428009E96C5869EB620D00001B251B311B41174
:10043800B51119E0010173517411751176110CE1B0
:10044800FEC0E1FFFFC0E2FF030EE66EFCC000F055
:10045800FDC001F0EADE08D0010E0101735F000E55
:10046800745B755B765BDED70101C9CF72F17151A0
:10047800000A02E1C58A01D0C59A9E96C588B2C015
:1004880073F1B3C074F1B4C075F1B5C076F19EB61E
:1004980020D00001B251B311B411B51119E0010116
:1004A80073517411751176110CE1FEC0E1FFFFC0A4
:1004B800E2FF030EE66EFCC000F0FDC001F0B5DE01
:1004C80008D0010E0101735F000E745B755B765BEB
:0804D800DED772C100F0120032
:1004E0009E9671C1C9FFB2C072F1B3C073F1B4C0BE
:1004F00074F1B5C075F1C7A422D00001B251B31197
:10050000B411B5111BE00101725173117411751111
:100510000EE1FEC0E1FFFFC0E2FF040EE66EFCC08C
:1005200000F0FDC001F085DE010E006E3BD0010E33
:100530000101725F000E735B745B755BDCD7B2C048
:1005400072F1B3C073F1B4C074F1B5C075F19EB669
:1005500022D00001B251B311B411B5111BE0010159
:1005600072517311741175110EE1FEC0E1FFFFC0ED
:10057000E2FF040EE66EFCC000F0FDC001F059DEA3
:10058000010E006E0FD0010E0101725F000E735B51
:10059000745B755BDCD7C5BC02D0006A03D0C58430
:0605A000020E006E1200C5
:0A05A600000E82B6010E006E120076
:0A05B000000E81B4010E006E12006F
:0A05BA00000E86B4010E006E120060
:0A05C400000E86B2010E006E120058
:1005CE00B6C071F1B7C072F1B8C073F1B9C074F1B1
:1005DE00668266A220D00001B651B711B811B911CA
:1005EE0019E0010171517211731174110CE113C1F3
:1005FE00E1FF14C1E2FF060EE66E11C100F012C15A
:10060E0001F010DE08D0010E0101715F000E725B69
:08061E00735B745BDED7120070
:0406260066841200D4
:10062A00B2C073F1B3C074F1B4C075F1B5C076F15C
:10063A000101716B726B7251120802E171518E08DD
:10064A0008E30BDE005201E004D00101714B722B6A
:10065A00F2D70101120E725D02E18F0E715D03E3A2
:10066A007B0E006E26D0C580C5A022D00001B251F3
:10067A00B311B411B5111BE0010173517411751155
:10068A0076110EE1FEC0E1FFFFC0E2FF050EE66E45
:10069A00FCC000F0FDC001F0C7DD010E006E09D0FC
:1006AA00010E0101735F000E745B755B765BDCD72C
:0406BA00006A1200C0
:0406BE00C5841200DD
:1006C200B6C073F1B7C074F1B8C075F1B9C076F1B4
:1006D200A19A6686A1BA20D00001B651B711B8110D
:1006E200B91119E0010173517411751176110CE100
:1006F20013C1E1FF14C1E2FF030EE66E11C100F067
:1007020012C101F095DD08D0010E0101735F000EE8
:10071200745B755B765BDED701016ACF72F1715152
:10072200000A02E1668A01D0669AA19A6688B6C07A
:1007320073F1B7C074F1B8C075F1B9C076F1A1BA5E
:1007420020D00001B651B711B811B91119E0010159
:1007520073517411751176110CE113C1E1FF14C1CB
:10076200E2FF030EE66E11C100F012C101F060DD7E
:1007720008D0010E0101735F000E745B755B765B3E
:08078200DED772C100F0120085
:10078A00A19A71C16AFFB6C072F1B7C073F1B8C05D
:10079A0074F1B9C075F168A422D00001B651B7113D
:1007AA00B811B9111BE0010172517311741175115D
:1007BA000EE113C1E1FF14C1E2FF040EE66E11C19E
:1007CA0000F012C101F030DD010E006E3BD0010EC7
:1007DA000101725F000E735B745B755BDCD7B6C098
:1007EA0072F1B7C073F1B8C074F1B9C075F1A1BAAA
:1007FA0022D00001B651B711B811B9111BE001019D
:10080A0072517311741175110EE113C1E1FF14C114
:10081A00E2FF040EE66E11C100F012C101F004DD20
:10082A00010E006E0FD0010E0101725F000E735BA4
:10083A00745B755BDCD766BC02D0006A03D0668441
:06084A00020E006E120018
:0A085000000E82B8010E006E1200C7
:0A085A00000E81B2010E006E1200C4
:10086400B2C071F1B3C072F1B4C073F1B5C074F128
:10087400C582C5A220D00001B251B311B411B51183
:1008840019E0010171517211731174110CE1FEC070
:10089400E1FFFFC0E2FF060EE66EFCC000F0FDC003
:1008A40001F0C5DC08D0010E0101715F000E725B1E
:0808B400735B745BDED71200D8
:0A08BC00000E86B0010E006E12005F
:1008C600AECF01F0ABA202D0AB98AB8801C000F06E
:0208D60012000E
:0A08D800000E82B8010E006E12003F
:0A08E200000E82BC010E006E120031
:0A08EC00000E82B6010E006E12002D
:0A08F600000E84B6010E006E120021
:0A090000000E80B4010E006E12001C
:0A090A00000E82B6010E006E12000E
:0A091400000E82BE010E006E1200FC
:0A091E00000E82BA010E006E1200F6
:0A092800000E84B4010E006E1200F0
:100932006C0E01011B6F010E1C6F770E1D6F010EF5
:100942001E6F6E0E1F6F030E206F000E216F000EC2
:10095200226F7E0E236F020E246F000E256F000E93
:10096200266F880E156F020E166F000E176F000E9F
:10097200186F0F01218B900E226F98849892A4AA6F
:0A09820003D01DCF00F0FBD71200D8
:10098C00640E0001F86F020EF96F000EFA6F000E84
:10099C00FB6F2A0EF46F060EF56F000EF66F000E4D
:1009AC00F76F640E0101016F080E026F000E036FEA
:1009BC00000E046F180E0D6F040E0E6F710E0F6F7C
:1009CC00010E106FE00E096F040E0A6F710E0B6FA3
:1009DC00010E0C6FBE0E3F6F060E406F000E416F86
:1009EC00000E426F949894968B988B96948894866C
:0A09FC00C79EC79C380EC66E12009D
:100A06000101676B686B2FC100F030C101F00EDC8D
:100A160000C067F1000E0101686F67C100F068C190
:040A260001F01200C9
:100A2A0001016F6B706B68C16DF169C16EF167C1CD
:100A3A0000F00036009035C1E1FF36C1E2FF00C088
:100A4A00E6FF33C100F034C101F019EC01F00050A7
:100A5A0001016F13000E70136AC100F06BC101F03F
:100A6A00010E6A5F000E6B5B0050011018E035C181
:100A7A00E1FF36C1E2FF6DC1E9FF6EC1EAFFEECFC9
:100A8A00E6FF33C100F034C101F019EC01F0005067
:100A9A0001016F13000E70136D4B6E2BDDD76C5175
:100AAA00000A06E13BC100F03CC101F019EC01F07B
:100ABA0001016C51010A06E127C100F028C101F0C9
:0E0ACA0019EC01F06FC100F070C101F01200D4
:100AD8007C0E01011B6F010E1C6F770E1D6F010E3E
:100AE8001E6FC60E1F6F080E206F000E216F000EBE
:100AF800226FBC0E236F020E246F000E256F000EAE
:100B0800266F820E156F030E166F000E176F000EFC
:100B1800186FAC8A900EAB6E948E949C9EAA03D0EC
:080B2800AECF00F0FBD7120074
:100B300001016F6B706B68C16DF169C16EF167C1C6
:100B400000F000360090008035C1E1FF36C1E2FFC1
:100B500000C0E6FF33C100F034C101F019EC01F030
:100B6000005001016F13000E7013010E6A5F000E3A
:100B70006B5B6A516B1116E039C1E1FF3AC1E2FFCC
:100B8000010EE66E37C100F038C101F019EC01F03A
:100B90006DC1E1FF6EC1E2FF00C0E6FF01016D4BD8
:100BA0006E2BE3D739C1E1FF3AC1E2FFE66A37C1F4
:100BB00000F038C101F019EC01F06DC1E1FF6EC128
:100BC000E2FF00C0E6FF01016C51000A06E13BC1F3
:100BD00000F03CC101F019EC01F001016C51010A77
:100BE00006E127C100F028C101F019EC01F06FC146
:080BF00000F070C101F01200D9
:100BF80021D0CF0EAF6EAC946BDF6BD0670EAF6EAB
:100C0800AC9466DF66D0CF0EAF6EAC8461DF61D086
:100C1800670EAF6EAC845CDF5CD0440EAF6EAC8404
:100C280057DF57D0220EAF6EAC8452DF52D0060E7B
:100C3800006E58D00101000E006E641908E10050E2
:100C4800631905E1120E621902E16151C00AD1E08F
:100C5800000E006E641908E10050631905E1250EC5
:100C6800621902E16151800AC9E0000E006E641940
:100C780008E10050631905E14B0E621902E1615168
:100C8800000AC1E0000E006E641908E10050631903
:100C980005E1960E621902E16151000AB9E0000E01
:100CA800006E641908E10050631905E1E10E62194C
:100CB80002E16151000AB1E06451000A08E16351A0
:100CC800010A05E16251C20A02E16151000AAAE083
:100CD800AED77C0E056F010E066F770E076F010EFB
:060CE800086F006A120013
:100CEE0007C1E1FF08C1E2FF61C1E9FF62C1EAFF8E
:100CFE00EECFE6FF05C100F006C101F019EC01F0E0
:040D0E00006A120065
:100D120021D0CF0EAF6EAC94DEDE6BD0670EAF6E1D
:100D2200AC94D9DE66D0CF0EAF6EAC84D4DE61D087
:100D3200670EAF6EAC84CFDE5CD0440EAF6EAC8477
:100D4200CADE57D0220EAF6EAC84C5DE52D0060E7C
:100D5200006E58D00101000E006E641908E10050C7
:100D6200631905E1120E621902E16151C00AD1E074
:100D7200000E006E641908E10050631905E1250EAA
:100D8200621902E16151800AC9E0000E006E641925
:100D920008E10050631905E14B0E621902E161514D
:100DA200000AC1E0000E006E641908E100506319E8
:100DB20005E1960E621902E16151000AB9E0000EE6
:100DC200006E641908E10050631905E1E10E621931
:100DD20002E16151000AB1E06451000A08E1635185
:100DE200010A05E16251C20A02E16151000AAAE068
:100DF200AED77C0E056F010E066F770E076F010EE0
:060E0200086F006A1200F7
:100E080038D00F0120870D0E1F6F040E1E6F21852D
:100E18008CDD7ED00F012087060E1F6F820E1E6F9D
:100E2800218583DD75D00F012087030E1F6F400ECB
:100E38001E6F21857ADD6CD00F012087010E1F6F90
:100E4800A00E1E6F218571DD63D00F012087010E72
:100E58001F6F150E1E6F218568DD5AD00F01208780
:100E68001F6B8A0E1E6F218560DD52D0060E006E44
:100E780059D0000E006E0101641908E10050631991
:100E880005E1120E621902E16151C00ABAE0000ED2
:100E9800006E641908E10050631905E1250E621916
:100EA80002E16151800AB6E0000E006E641908E1A3
:100EB8000050631905E14B0E621902E16151000A05
:100EC800B2E0000E006E641908E10050631905E1F4
:100ED800960E621902E16151000AAEE0000E006E42
:100EE800641908E10050631905E1E10E621902E195
:100EF8006151000AAAE06451000A08E16351010A3D
:100F080005E16251C20A02E16151000AA7E0AED7C9
:100F180001016C0E056F010E066F770E076F010E4B
:060F2800086F006A1200D0
:100F2E005DD0010162B102D0929401D092840F0182
:100F3E0025957AD0010162B102D0969601D096869F
:100F4E0073D0010162B102D0969401D096846CD018
:100F5E00010162B102D0949601D0948665D0010150
:100F6E0062B102D0949801D094885ED0010162B132
:100F7E0002D0949A01D0948A57D0010162B102D066
:100F8E00989001D0988050D0010162B102D0939414
:100F9E0001D0938449D0010162B102D0989401D05E
:100FAE0098840F01239540D0010162B102D098922E
:100FBE0001D098820F01239337D0010162B102D084
:100FCE00949601D0948630D0010162B102D09498EB
:100FDE0001D0948829D0010E006E28D001016151F4
:100FEE00000A9FE06151010AA5E06151020AA9E0E1
:100FFE006151030AADE06151040AB1E06151050A85
:10100E00B5E06151060AB9E06151070ABDE06151D0
:10101E00080AC1E06151090AC7E061510A0ACDE030
:0E102E0061510B0AD1E0D7D7000E006E120000
:10103C0059D0010162B102D0929201D092820F017B
:10104C00259376D0010162B102D0929801D092889A
:10105C006FD0010162B102D0969201D0968268D015
:10106C00010162B102D0949601D0948661D0010145
:10107C0062B102D0949801D094885AD0010162B127
:10108C0002D0949A01D0948A53D0010162B102D05B
:10109C00949401D094844CD0010162B102D093920B
:1010AC0001D0938245D0010162B102D0949E01D04F
:1010BC00948E3ED0010162B102D0949C01D0948CEC
:1010CC0037D0010162B102D0949601D0948630D011
:1010DC00010162B102D0949801D0948829D0010EFC
:1010EC00006E28D001016151000AA3E06151010A90
:1010FC00A9E06151020AADE06151030AB1E061510E
:10110C00040AB5E06151050AB9E06151060ABDE077
:10111C006151070AC1E06151080AC5E06151090A31
:10112C00C9E061510A0ACDE061510B0AD1E0D7D771
:06113C00000E006E12001F
:1011420059D0010162B102D0929001D092800F0178
:10115200259176D0010162B102D0949001D09480A1
:101162006FD0010162B102D0969001D0968068D012
:10117200010162B102D0949601D0948661D001013E
:1011820062B102D0949801D094885AD0010162B120
:1011920002D0949A01D0948A53D0010162B102D054
:1011A200949201D094824CD0010162B102D093900A
:1011B20001D0938045D0010162B102D0949E01D04A
:1011C200948E3ED0010162B102D0949C01D0948CE5
:1011D20037D0010162B102D0949601D0948630D00A
:1011E200010162B102D0949801D0948829D0010EF5
:1011F200006E28D001016151000AA3E06151010A89
:10120200A9E06151020AADE06151030AB1E0615106
:10121200040AB5E06151050AB9E06151060ABDE070
:101222006151070AC1E06151080AC5E06151090A2A
:10123200C9E061510A0ACDE061510B0AD1E0D7D76A
:06124200000E006E120018
:1012480061C164F162C165F163C166F10DD0A00EA0
:10125800C86EC6EC04F045D0280EC86EC6EC04F083
:1012680040D0040E006E3FD064C1F6FF65C1F7FFA1
:1012780066C1F8FF0900F5CF01F00900F5CF02F0CB
:101288000900F5CF03F00900F5CF04F00450000A77
:1012980008E10350010A05E10250860A02E1015003
:1012A800A00AD5E064C1F6FF65C1F7FF66C1F8FF83
:1012B8000900F5CF01F00900F5CF02F00900F5CFDC
:1012C80003F00900F5CF04F00450000A08E10350C8
:1012D800060A05E102501A0A02E10150800ABCE040
:0812E800C0D7000E006E1200D9
:1012F00027D0CF0EAF6EAC946CEC05F070D0670EBB
:10130000AF6EAC946CEC05F06AD0CF0EAF6EAC84CF
:101310006CEC05F064D0670EAF6EAC846CEC05F03D
:101320005ED0440EAF6EAC846CEC05F058D0220E4B
:10133000AF6EAC846CEC05F052D0060E006E58D047
:101340000101000E006E641908E10050631905E107
:10135000120E621902E16151C00ACBE0000E006E6C
:10136000641908E10050631905E1250E621902E1D4
:101370006151800AC4E0000E006E641908E100505B
:10138000631905E14B0E621902E16151000ABDE0EB
:10139000000E006E641908E10050631905E1960E15
:1013A000621902E16151000AB6E0000E006E641994
:1013B00008E10050631905E1E10E621902E1615193
:1013C000000AAFE06451000A08E16351010A05E137
:1013D0006251C20A02E16151000AA9E0AED77C0E57
:1013E000056F010E066F770E076F010E086F006A1A
:0213F0001200E9
:1013F20061C164F162C165F163C166F10DD0A00EF5
:10140200C86EC6EC04F045D0280EC86EC6EC04F0D7
:1014120040D0040E006E3FD064C1F6FF65C1F7FFF5
:1014220066C1F8FF0900F5CF01F00900F5CF02F01F
:101432000900F5CF03F00900F5CF04F00450000ACB
:1014420008E10350010A05E10250860A02E1015057
:10145200A00AD5E064C1F6FF65C1F7FF66C1F8FFD7
:101462000900F5CF01F00900F5CF02F00900F5CF30
:1014720003F00900F5CF04F00450000A08E103501C
:10148200060A05E102501A0A02E10150800ABCE094
:08149200C0D7000E006E12002D
:10149A0061C164F162C165F163C166F10DD0A00E4C
:1014AA00C86EC6EC04F045D0280EC86EC6EC04F02F
:1014BA0040D0040E006E3FD064C1F6FF65C1F7FF4D
:1014CA0066C1F8FF0900F5CF01F00900F5CF02F077
:1014DA000900F5CF03F00900F5CF04F00450000A23
:1014EA0008E10350010A05E10250860A02E10150AF
:1014FA00A00AD5E064C1F6FF65C1F7FF66C1F8FF2F
:10150A000900F5CF01F00900F5CF02F00900F5CF87
:10151A0003F00900F5CF04F00450000A08E1035073
:10152A00060A05E102501A0A02E10150800ABCE0EB
:08153A00C0D7000E006E120084
:1015420061C165F103EC05F000C167F1650E686FDA
:10155200010E696F010E6A6F000E6B6F010E6C6FE8
:1015620015EC05F000C167F162C168F163C169F170
:1015720064C16AF1000E01016B6F6C6B98EC05F0AF
:02158200120055
:10158400086A096A100E0C6E0134083609360450D4
:10159400085E0550D8A0053C095ED8B007D00450B9
:1015A40008260550D8B0053C0926D89000360136E7
:0615B4000C2EEAD7120024
:1015BA0061C163F162C164F103EC05F000C167F136
:1015CA00630E686F010E696F020E6A6F000E6B6F11
:0815DA006C6B15EC05F012002A
:1015E20061C162F103EC05F000C167F1620E686F40
:1015F200010E696F010E6A6F000E6B6F010E6C6F48
:1016020015EC05F000C167F1620E0101686F010E71
:10161200696F010E6A6F000E6B6F6C6B98EC05F0D0
:0616220062C100F012009D
:10162800090E0B6E1E0E0C6EE40E0D6E0D2EFED7FF
:0C1638000C2EFCD70B2EFAD7000012007D
:10164400086A080E0C6E003408360450085ED8B0E0
:0E16540002D00826D89000360C2EF5D71200D2
:10166200300E01016125006E000E6221016E000E36
:101672006321026E1C0E0024F66E000E0120F76E2E
:10168200000E0220F86E0900F5CF2BF10900F5CF0C
:101692002CF10900F5CF2DF10900F5CF2EF1120042
:1016A20061C1F6FF62C1F7FF63C1F8FF0900F5CF20
:1016B2002FF10900F5CF30F10900F5CF31F1090022
:1016C200F5CF32F1040E01016125F66E000E6221A2
:1016D200F76E000E6321F86E0900F5CF3BF10900A9
:1016E200F5CF3CF10900F5CF3DF10900F5CF3EF110
:1016F200080E6125F66E000E6221F76E000E632160
:10170200F86E0900F5CF27F10900F5CF28F109009D
:10171200F5CF29F10900F5CF2AF10C0E6125F66EFD
:10172200000E6221F76E000E6321F86E0900F5CFFC
:1017320033F10900F5CF34F10900F5CF35F1090095
:10174200F5CF36F1100E6125F66E000E6221F76EAE
:10175200000E6321F86E0900F5CF37F10900F5CFCD
:1017620038F10900F5CF39F10900F5CF3AF112004D
:101772001BD058C161F159C162F15AC163F163DDF5
:101782001ED058C161F159C162F15AC163F184DEC0
:1017920016D058C161F159C162F15AC163F128DE14
:1017A2000ED0010E006E0BD001015751000AE1E08C
:1017B2005751010AE6E05751020AEBE0F2D7120054
:1017C20057C15AF158C15BF10D0E01015C6F0A0E4F
:1017D2005D6F3AD05AC161F15BC162F177EC06F0FC
:1017E2003ED05AC1E9FF5BC1EAFFEE520AE05AC19C
:1017F20061F15BC162F177EC06F001015A4B5B2BA0
:10180200F0D72DD05AC1E9FF5BC1EAFFEE520AE0E0
:101812005AC161F15BC162F177EC06F001015A4BEA
:101822005B2BF0D701015C0E616F010E626F77ECEA
:1018320006F05D0E0101616F010E626F77EC06F03A
:101842000ED0060E006E0CD001015951000AC2E002
:101852005951010AC6E05951020AD4E0F2D7006A8E
:02186200120072
:1018640017D058C161F159C162F169DC1CD058C16B
:1018740061F159C162F11EEC08F015D058C161F153
:1018840059C162F197EC07F00ED0010E006E0BD037
:1018940001015751000AE5E05751010AE8E05751A8
:0818A400020AECE0F2D7120089
:1018AC005DC100F15AC161F15BC162F15CC163F1D0
:1018BC00F2DE57C161F158C162F159C163F1CBDE5F
:0218CC00120008
:1018CE0001015A6B030E5A5D0AE25A515825E16E18
:1018DE00000E5921E26E200EE66E5A2BF3D75A51A6
:1018EE005825E16E000E5921E26EE66A5A075A51EA
:1018FE0058255B6F000E59215C6F0A0E046E57C19E
:10190E0000F099DE08C000F0300E00265BC1E1FF4A
:10191E005CC1E2FF00C0E6FF0A0E046E57C100F084
:10192E008ADE00C057F10050000A01E102D05A07CA
:04193E00DED71200DE
:101942002ED058C161F159C162F15AC163F15BC134
:1019520064F1CDDC32D058C161F159C162F15AC192
:1019620063F15BC164F1FCEC05F027D058C161F171
:1019720059C162F15AC163F15BC164F104EC07F031
:101982001CD058C161F159C162F15AC163F15BC106
:1019920064F189EC06F011D0010E006E0ED0010147
:1019A2005751000ACEE05751010AD5E05751020AB9
:0C19B200DDE05751100AE5E0EFD712000D
:1019BE00830E0101616F140E626FF8DD010E0101DD
:1019CE005725596F000E58215A6F830E616F02DE34
:1019DE0059C1E1FF5AC1E2FF00C0E6FF1EDE820ED2
:1019EE000101616F040E626FE1DD020E01015725E8
:1019FE00596F000E58215A6F820E616FEBDD59C17F
:101A0E00E1FF5AC1E2FF00C0E6FF07DE800E0101D2
:101A1E00616F070E626FCADD030E01015725596F04
:101A2E00000E58215A6F800E616FD4DD59C1E1FF4F
:101A3E005AC1E2FF00C0E6FFF0DD890E0101616FC1
:101A4E00020E626FB3DD040E01015725596F000EB1
:101A5E0058215A6F890E616FBDDD59C1E1FF5AC120
:101A6E00E2FF00C0E6FFD9DD840E0101616F1D0E9D
:101A7E00626F9CDD050E01015725596F000E58212E
:101A8E005A6F840E616FA6DD59C1E1FF5AC1E2FFA4
:101A9E0000C0E6FFC2DD57C159F158C15AF1810E9F
:101AAE000101616F97DD59C1E1FF5AC1E2FF00C02C
:061ABE00E6FFB3DD12009B
:101AC40001015D6B5E6B5F6B606B596B100E595D52
:101AD40033E20101800E616F82DD200E0014016E7D
:101AE400000E0118F6E0870E0101616FCE0E626FE1
:101AF400000E636F020E646F22DDCEC05AF1000E39
:101B040001015B6F5AC101F0006A00C05AF101C0C3
:101B14005BF10001CF510012000E011200C05AF116
:101B240001C05BF1005001015D2701505E23000EEE
:101B34005F236023592BCAD7040E046E5DC100F0E5
:101B44005EC101F05FC102F060C103F0045007E020
:101B54000332023201320032039EFF0FF8D7010133
:101B640000C019F101C01AF1140E00245C6FFF0EBD
:101B74005C17140E0026000E0122000E0014036EE2
:101B84000150FF0B046E04C000F0016A8C0E616FFB
:101B940000C062F110DD8D0E0101616F5CC162F164
:101BA4000ADD140E01011925006E000E1A21016EC2
:101BB40057C1E1FF58C1E2FF00C0E6FF01C0E6FFE4
:021BC40012000D
:101BC60001015B6B050E5B5D0AE25B515925E16E17
:101BD600000E5A21E26E200EE66E5B2BF3D75B51A8
:101BE6005925E16E000E5A21E26EE66A5B075B51EB
:101BF60059255C6F000E5A215D6F0A0E046E000EA9
:101C0600056E57C100F058C101F0B9DC08C000F0FC
:101C160009C001F0300E00265CC1E1FF5DC1E2FFA4
:101C260000C0E6FF0A0E046E000E056E57C100F0F6
:101C360058C101F0A4DC00C057F101C058F1000EF4
:101C4600011802E1000E001801E102D05B07CFD7B0
:021C560012007A
:101C58000101576B070E586F010E596FFFDD010127
:101C6800576B430E586F210E596F000E5A6F7DDD6A
:101C7800100E0101576F800E586F250E596F000E18
:101C88005A6F5B6F5ADEBA0E0101576F000E586F1C
:101C9800020E596F92DD090E0B6E1E0E0C6EE40ECD
:101CA8000D6E0D2EFED70C2EFCD70B2EFAD700008A
:021CB800120018
:101CBA000900F5CFE6FF0006FBE10106F9E1120093
:101CCA00800E0101616F88DC00C0CAF0200E016E2F
:101CDA00400E011200500116000E0118F1E08E0E9E
:101CEA000101616F79DC00C0CBF0010E001606E03D
:101CFA008E0E0101616FCBC062F15ADC200E000129
:101D0A00CA15016E400ECA15006E015000126FE02E
:101D1A00870E0101616FCE0E626F000E636F020EB5
:101D2A00646F0ADCCEC0CCF0000E0001CD6FCCC0CF
:101D3A0001F0006A00C0CCF001C0CDF0CF51001212
:101D4A00000E011200C0CCF001C0CDF000C057F166
:101D5A0001C058F1430E0101596F010E5A6F2EDF6F
:101D6A00270E576F000E586F010E596F25DD430E6F
:101D7A000101576F010E586F020E596F1DDD850E56
:101D8A000101616FCE0E626F000E636F020E646F07
:101D9A00A1EC0AF0CEC0F2F0000E0001F36FF2C01F
:101DAA0001F0006A00C0F2F001C0F3F0CF51001256
:101DBA00000E011200C0F2F001C0F3F000C057F1AA
:101DCA0001C058F1430E0101596F010E5A6FF6DE38
:101DDA00A20E576F000E586F010E596FEDDC430EBD
:101DEA000101576F010E586F020E596FE5DCA00E04
:101DFA000101576F000E586F020E596FDDDC8E0E0F
:101E0A000101576F000E586F020E596FD5DCB00EE4
:101E1A000101576F000E586F020E596FCDDC190E73
:101E2A000B6E5A0E0C6EB10E0D6E0D2EFED70C2EC9
:0C1E3A00FCD70B2EFAD7000000001200AD
:101E4600CF0E0101576F200E586F000E596F2F0EDF
:101E56005A6F210E5B6F000E5C6F130E5D6F23DDF4
:101E6600290E0B6E960E0C6E7F0E0D6E0D2EFED786
:101E76000C2EFCD70B2EFAD74D0E576F010E586F4E
:101E86009BDD4DC157F1430E0101586F010E596F8D
:101E96001BDD550E576F000E586F010E596F8EDC05
:101EA600430E0101576F010E586F020E596F86DC03
:101EB6004EC157F1430E0101586F010E596F04DDF3
:101EC600450E576F000E586F010E596F77DC430EA3
:101ED6000101576F010E586F020E596F6FDC4FC12B
:101EE60057F1430E0101586F010E596FEDDC350EA7
:101EF600576F000E586F010E596F60DC430E0101DB
:101F0600576F010E586F020E596F58DC50C157F1CA
:101F1600430E0101586F010E596FD6DC610E576FE3
:101F2600000E586F010E596F49DC430E0101576FC1
:101F3600010E586F020E596F41DC51C157F1430E25
:101F46000101586F010E596FBFDC7E0E576F000EF0
:101F5600586F010E596F32DC430E0101576F010EA7
:101F6600586F020E596F2ADC52C157F1430E010118
:101F7600586F010E596FA8DC6F0E576F000E586F21
:101F8600010E596F1BDC430E0101576F010E586F8E
:101F9600020E596F13DCDE0E0101576F000E586FEB
:101FA6008EDDDEC057F1DFC058F1430E596F010ECA
:101FB6005A6F06DE160E576F000E586F010E596FD8
:101FC600E1EC0BF0430E0101576F010E586F020E44
:101FD600596FE1EC0BF0150E0101576F000E586FAB
:101FE600020E596FE1EC0BF0190E0B6E5A0E0C6EC9
:101FF600B10E0D6E0D2EFED70C2EFCD70B2EFAD77A
:06200600000000001200C2
:0E200C00A4EC10F023DE19DF5ADEFED7FFD75A
:1021480010EE15F0B50E006E010E016E1A0EF66E49
:0E215800200EF76E000EF86E5DEC0EF0120019
:01201A0000C5
:10201B005570706572205468726573686F6C643AA2
:01202B0000B4
:0E202C0050726F78696D6974793A2020200037
:10203A0050726F78696D69747920526174653A00DB
:10204A004952204C45442043757272656E743A00B9
:0C205A0050726F647563742049443A00B2
:0E206600436D642052656769737465723A00B9
:0F207400416D6269656E74204C696768743A004B
:10208300496E74657272757074204354524C3A00F1
:102093002D2D2D2D2D2D2D2D2D2D2D2D2D2D2D2D6D
:0220A3002D000E
:0220A500200019
:0E20A700416D6269656E743A20202020200091
:0220B500200009
:0420B7000000000025
:0420BB000000000021
:1020BF00496E697469616C697A696E672E2E2E009C
:1020CF00980177018A0177015E0177013401770169
:1020DF00260177015001770142017701A6017701AF
:1020EF0008027701FA0177012402770116027701BE
:1020FF0094020000B2020000A80200009E0200003D
:10210F008C030000E6030000DC030000D203000094
:10211F0004040000FA030000F0030000AA0300000B
:10212F002A060000BE06000064080000E0047101EA
:04213F00180471010E
:04214300A086010071
:020000040030CA
:0E00000015137F7CF98B91FFFFC0FFE0FF40DE
:00000001FF
